{
  "contractName": "Voting",
  "abi": [
    {
      "constant": true,
      "inputs": [
        {
          "name": "",
          "type": "bytes32"
        }
      ],
      "name": "votesReceived",
      "outputs": [
        {
          "name": "",
          "type": "uint256"
        }
      ],
      "payable": false,
      "stateMutability": "view",
      "type": "function"
    },
    {
      "constant": true,
      "inputs": [],
      "name": "totalTokens",
      "outputs": [
        {
          "name": "",
          "type": "uint256"
        }
      ],
      "payable": false,
      "stateMutability": "view",
      "type": "function"
    },
    {
      "constant": true,
      "inputs": [],
      "name": "tokenPrice",
      "outputs": [
        {
          "name": "",
          "type": "uint256"
        }
      ],
      "payable": false,
      "stateMutability": "view",
      "type": "function"
    },
    {
      "constant": true,
      "inputs": [
        {
          "name": "",
          "type": "uint256"
        }
      ],
      "name": "candidateList",
      "outputs": [
        {
          "name": "",
          "type": "bytes32"
        }
      ],
      "payable": false,
      "stateMutability": "view",
      "type": "function"
    },
    {
      "constant": true,
      "inputs": [
        {
          "name": "",
          "type": "address"
        }
      ],
      "name": "voterInfo",
      "outputs": [
        {
          "name": "voterAddress",
          "type": "address"
        },
        {
          "name": "tokensBought",
          "type": "uint256"
        }
      ],
      "payable": false,
      "stateMutability": "view",
      "type": "function"
    },
    {
      "constant": true,
      "inputs": [],
      "name": "balanceTokens",
      "outputs": [
        {
          "name": "",
          "type": "uint256"
        }
      ],
      "payable": false,
      "stateMutability": "view",
      "type": "function"
    },
    {
      "inputs": [
        {
          "name": "_totalTokens",
          "type": "uint256"
        },
        {
          "name": "_tokenPrice",
          "type": "uint256"
        },
        {
          "name": "_candidateNames",
          "type": "bytes32[]"
        }
      ],
      "payable": false,
      "stateMutability": "nonpayable",
      "type": "constructor"
    },
    {
      "constant": false,
      "inputs": [],
      "name": "buy",
      "outputs": [],
      "payable": true,
      "stateMutability": "payable",
      "type": "function"
    },
    {
      "constant": false,
      "inputs": [
        {
          "name": "candidate",
          "type": "bytes32"
        },
        {
          "name": "tokens",
          "type": "uint256"
        }
      ],
      "name": "voteForCandidate",
      "outputs": [],
      "payable": false,
      "stateMutability": "nonpayable",
      "type": "function"
    },
    {
      "constant": true,
      "inputs": [
        {
          "name": "candidate",
          "type": "bytes32"
        }
      ],
      "name": "indexOfCandidate",
      "outputs": [
        {
          "name": "",
          "type": "uint256"
        }
      ],
      "payable": false,
      "stateMutability": "view",
      "type": "function"
    },
    {
      "constant": true,
      "inputs": [
        {
          "name": "user",
          "type": "address"
        }
      ],
      "name": "voterDetails",
      "outputs": [
        {
          "name": "",
          "type": "uint256"
        },
        {
          "name": "",
          "type": "uint256[]"
        }
      ],
      "payable": false,
      "stateMutability": "view",
      "type": "function"
    },
    {
      "constant": true,
      "inputs": [],
      "name": "tokensSold",
      "outputs": [
        {
          "name": "",
          "type": "uint256"
        }
      ],
      "payable": false,
      "stateMutability": "view",
      "type": "function"
    },
    {
      "constant": true,
      "inputs": [],
      "name": "allCandidates",
      "outputs": [
        {
          "name": "",
          "type": "bytes32[]"
        }
      ],
      "payable": false,
      "stateMutability": "view",
      "type": "function"
    },
    {
      "constant": true,
      "inputs": [
        {
          "name": "candidate",
          "type": "bytes32"
        }
      ],
      "name": "totalVotesFor",
      "outputs": [
        {
          "name": "",
          "type": "uint256"
        }
      ],
      "payable": false,
      "stateMutability": "view",
      "type": "function"
    }
  ],
  "bytecode": "0x608060405234801561001057600080fd5b50604051610c40380380610c40833981018060405281019080805190602001909291908051906020019092919080518201929190505050826001819055508260028190555081600381905550806000908051906020019061007292919061007b565b505050506100f3565b8280548282559060005260206000209081019282156100bd579160200282015b828111156100bc57825182906000191690559160200191906001019061009b565b5b5090506100ca91906100ce565b5090565b6100f091905b808211156100ec5760008160009055506001016100d4565b5090565b90565b610b3e806101026000396000f3006080604052600436106100c5576000357c0100000000000000000000000000000000000000000000000000000000900463ffffffff1680632f265cf7146100ca578063518ab2a81461010f5780635938750d1461013a5780636b2dc6b5146101d95780637021939f146102145780637e1c0c09146102595780637ff9b5961461028457806381c40715146102af578063a6f2ae3a1461031b578063b13c744b14610325578063cdf58d351461036e578063e4494a0f146103f8578063ecd098b014610423575b600080fd5b3480156100d657600080fd5b506100f96004803603810190808035600019169060200190929190505050610468565b6040518082815260200191505060405180910390f35b34801561011b57600080fd5b5061012461048d565b6040518082815260200191505060405180910390f35b34801561014657600080fd5b5061017b600480360381019080803573ffffffffffffffffffffffffffffffffffffffff16906020019092919050505061049b565b6040518083815260200180602001828103825283818151815260200191508051906020019060200280838360005b838110156101c45780820151818401526020810190506101a9565b50505050905001935050505060405180910390f35b3480156101e557600080fd5b5061021260048036038101908080356000191690602001909291908035906020019092919050505061057f565b005b34801561022057600080fd5b506102436004803603810190808035600019169060200190929190505050610858565b6040518082815260200191505060405180910390f35b34801561026557600080fd5b5061026e610870565b6040518082815260200191505060405180910390f35b34801561029057600080fd5b50610299610876565b6040518082815260200191505060405180910390f35b3480156102bb57600080fd5b506102c461087c565b6040518080602001828103825283818151815260200191508051906020019060200280838360005b838110156103075780820151818401526020810190506102ec565b505050509050019250505060405180910390f35b6103236108d8565b005b34801561033157600080fd5b50610350600480360381019080803590602001909291905050506109df565b60405180826000191660001916815260200191505060405180910390f35b34801561037a57600080fd5b506103af600480360381019080803573ffffffffffffffffffffffffffffffffffffffff169060200190929190505050610a02565b604051808373ffffffffffffffffffffffffffffffffffffffff1673ffffffffffffffffffffffffffffffffffffffff1681526020018281526020019250505060405180910390f35b34801561040457600080fd5b5061040d610a46565b6040518082815260200191505060405180910390f35b34801561042f57600080fd5b506104526004803603810190808035600019169060200190929190505050610a4c565b6040518082815260200191505060405180910390f35b6000600560008360001916600019168152602001908152602001600020549050919050565b600060025460015403905090565b60006060600460008473ffffffffffffffffffffffffffffffffffffffff1673ffffffffffffffffffffffffffffffffffffffff16815260200190815260200160002060010154600460008573ffffffffffffffffffffffffffffffffffffffff1673ffffffffffffffffffffffffffffffffffffffff1681526020019081526020016000206002018080548060200260200160405190810160405280929190818152602001828054801561056f57602002820191906000526020600020905b81548152602001906001019080831161055b575b5050505050905091509150915091565b600080600061061d600460003373ffffffffffffffffffffffffffffffffffffffff1673ffffffffffffffffffffffffffffffffffffffff16815260200190815260200160002060020180548060200260200160405190810160405280929190818152602001828054801561061357602002820191906000526020600020905b8154815260200190600101908083116105ff575b5050505050610ac9565b600460003373ffffffffffffffffffffffffffffffffffffffff1673ffffffffffffffffffffffffffffffffffffffff168152602001908152602001600020600101540392508284111515156106db576040517f08c379a000000000000000000000000000000000000000000000000000000000815260040180806020018281038252601c8152602001807f596f7520646f6e2774206861766520656e6f75676820746f6b656e730000000081525060200191505060405180910390fd5b83600560008760001916600019168152602001908152602001600020600082825401925050819055506000600460003373ffffffffffffffffffffffffffffffffffffffff1673ffffffffffffffffffffffffffffffffffffffff1681526020019081526020016000206002018054905014156107df57600091505b6000805490508210156107de57600460003373ffffffffffffffffffffffffffffffffffffffff1673ffffffffffffffffffffffffffffffffffffffff168152602001908152602001600020600201600090806001815401808255809150509060018203906000526020600020016000909192909190915055508180600101925050610757565b5b6107e885610a4c565b905083600460003373ffffffffffffffffffffffffffffffffffffffff1673ffffffffffffffffffffffffffffffffffffffff1681526020019081526020016000206002018281548110151561083a57fe5b90600052602060002001600082825401925050819055505050505050565b60056020528060005260406000206000915090505481565b60015481565b60035481565b606060008054806020026020016040519081016040528092919081815260200182805480156108ce57602002820191906000526020600020905b815460001916815260200190600101908083116108b6575b5050505050905090565b6000600354348115156108e757fe5b04905060025481111515156108fb57600080fd5b33600460003373ffffffffffffffffffffffffffffffffffffffff1673ffffffffffffffffffffffffffffffffffffffff16815260200190815260200160002060000160006101000a81548173ffffffffffffffffffffffffffffffffffffffff021916908373ffffffffffffffffffffffffffffffffffffffff16021790555080600460003373ffffffffffffffffffffffffffffffffffffffff1673ffffffffffffffffffffffffffffffffffffffff168152602001908152602001600020600101600082825401925050819055508060026000828254039250508190555050565b6000818154811015156109ee57fe5b906000526020600020016000915090505481565b60046020528060005260406000206000915090508060000160009054906101000a900473ffffffffffffffffffffffffffffffffffffffff16908060010154905082565b60025481565b600080600090505b600080549050811015610a9f578260001916600082815481101515610a7557fe5b9060005260206000200154600019161415610a9257809150610ac3565b8080600101915050610a54565b7fffffffffffffffffffffffffffffffffffffffffffffffffffffffffffffffff91505b50919050565b6000806000809150600090505b8351811015610b08578381815181101515610aed57fe5b90602001906020020151820191508080600101915050610ad6565b81925050509190505600a165627a7a7230582058c67ca022d6fe5b390a969b8049c831fdb593d65272950240f974e128714f3a0029",
  "source": "pragma solidity ^0.4.23;\r\n\r\ncontract Voting {\r\n  bytes32[] public candidateList;\r\n   \r\n  uint public totalTokens;\r\n  uint public balanceTokens;\r\n  uint public tokenPrice;\r\n   \r\n  // what is the voter address?\r\n  // total tokens purchased\r\n  // tokens voted per candidate \r\n   \r\n  struct voter {\r\n    address voterAddress;\r\n    uint tokensBought;\r\n    uint[] tokensUsedPerCandidate;\r\n  }\r\n   \r\n  mapping(address => voter) public voterInfo;\r\n   \r\n  mapping(bytes32 => uint) public votesReceived;\r\n   \r\n  constructor(uint _totalTokens, uint _tokenPrice, bytes32[] _candidateNames) public {\r\n    totalTokens = _totalTokens;\r\n    balanceTokens = _totalTokens;\r\n    tokenPrice = _tokenPrice;\r\n    candidateList = _candidateNames;\r\n  }\r\n   \r\n  //1. Users should be able to purchase tokens \r\n  //2. Users should be able to vote for candidates with tokens\r\n  //3. Anyone should be able to lookup voter info\r\n  function buy() payable public {\r\n    uint tokensToBuy = msg.value / tokenPrice;\r\n    require(tokensToBuy <= balanceTokens);\r\n    voterInfo[msg.sender].voterAddress = msg.sender;\r\n    voterInfo[msg.sender].tokensBought += tokensToBuy;\r\n    balanceTokens -= tokensToBuy;\r\n  }\r\n  \r\n  function voteForCandidate(bytes32 candidate, uint tokens) public {\r\n    // Check to make sure user has enough tokens to vote\r\n    // Increment vote count for candidate\r\n    // Update the voter struct tokensUsedPerCandidate for this voter \r\n     \r\n    uint availableTokens = voterInfo[msg.sender].tokensBought - totalTokensUsed(voterInfo[msg.sender].tokensUsedPerCandidate);\r\n   \r\n    require(tokens <= availableTokens, \"You don't have enough tokens\");\r\n    votesReceived[candidate] += tokens;\r\n     \r\n    if(voterInfo[msg.sender].tokensUsedPerCandidate.length == 0) {\r\n      for(uint i=0; i<candidateList.length;i++){\r\n        voterInfo[msg.sender].tokensUsedPerCandidate.push(0);\r\n      }\r\n    }\r\n     \r\n    uint index = indexOfCandidate(candidate);\r\n    voterInfo[msg.sender].tokensUsedPerCandidate[index] += tokens;\r\n     \r\n  }\r\n   \r\n  function indexOfCandidate(bytes32 candidate) view public returns(uint) {\r\n    for(uint i=0; i<candidateList.length; i++){\r\n      if (candidateList[i] == candidate) {\r\n        return i;\r\n      }\r\n    }\r\n    return uint(-1);\r\n  }\r\n\r\n  function totalTokensUsed(uint[] _tokensUsedPerCandidate) private pure returns (uint) {\r\n    uint totalUsedTokens = 0;\r\n    for(uint i=0; i<_tokensUsedPerCandidate.length; i++) {\r\n      totalUsedTokens += _tokensUsedPerCandidate[i];\r\n    }\r\n    return totalUsedTokens;\r\n  } \r\n  \r\n  function voterDetails(address user) view public returns (uint, uint[]) {\r\n    return (voterInfo[user].tokensBought, voterInfo[user].tokensUsedPerCandidate);\r\n  }\r\n   \r\n  function tokensSold() public view returns (uint) {\r\n    return totalTokens - balanceTokens;\r\n  }\r\n   \r\n  function allCandidates() public view returns (bytes32[]) {\r\n    return candidateList;\r\n  }\r\n   \r\n  function totalVotesFor(bytes32 candidate) public view returns (uint) {\r\n    return votesReceived[candidate];\r\n  }\r\n  \r\n}",
  "sourcePath": "C:\\WorkSpaceFirtsDapp\\FirstDapp\\chapter3\\contracts\\Voting.sol",
  "compiler": {
    "name": "solc",
    "version": "0.4.24+commit.e67f0147.Emscripten.clang"
  },
  "schemaVersion": "2.0.0",
  "updatedAt": "2018-06-10T18:58:11.520Z"
}